{
  "contractName": "Roulette",
  "abi": [
    {
      "inputs": [],
      "stateMutability": "nonpayable",
      "type": "constructor"
    },
    {
      "anonymous": false,
      "inputs": [
        {
          "indexed": true,
          "internalType": "address",
          "name": "player",
          "type": "address"
        },
        {
          "indexed": false,
          "internalType": "uint256",
          "name": "amount",
          "type": "uint256"
        },
        {
          "indexed": false,
          "internalType": "uint8",
          "name": "betColor",
          "type": "uint8"
        }
      ],
      "name": "BetPlaced",
      "type": "event"
    },
    {
      "anonymous": false,
      "inputs": [
        {
          "indexed": true,
          "internalType": "address",
          "name": "player",
          "type": "address"
        },
        {
          "indexed": false,
          "internalType": "uint8",
          "name": "winningColor",
          "type": "uint8"
        },
        {
          "indexed": false,
          "internalType": "uint256",
          "name": "prize",
          "type": "uint256"
        }
      ],
      "name": "BetResult",
      "type": "event"
    },
    {
      "anonymous": false,
      "inputs": [
        {
          "indexed": true,
          "internalType": "address",
          "name": "to",
          "type": "address"
        },
        {
          "indexed": false,
          "internalType": "uint256",
          "name": "amount",
          "type": "uint256"
        }
      ],
      "name": "FeeTransferred",
      "type": "event"
    },
    {
      "anonymous": false,
      "inputs": [
        {
          "indexed": true,
          "internalType": "address",
          "name": "to",
          "type": "address"
        },
        {
          "indexed": false,
          "internalType": "uint256",
          "name": "amount",
          "type": "uint256"
        }
      ],
      "name": "PrizeTransferred",
      "type": "event"
    },
    {
      "inputs": [],
      "name": "feePercentage",
      "outputs": [
        {
          "internalType": "uint256",
          "name": "",
          "type": "uint256"
        }
      ],
      "stateMutability": "view",
      "type": "function",
      "constant": true
    },
    {
      "inputs": [],
      "name": "owner",
      "outputs": [
        {
          "internalType": "address",
          "name": "",
          "type": "address"
        }
      ],
      "stateMutability": "view",
      "type": "function",
      "constant": true
    },
    {
      "inputs": [
        {
          "internalType": "uint8",
          "name": "betColor",
          "type": "uint8"
        }
      ],
      "name": "placeBet",
      "outputs": [],
      "stateMutability": "payable",
      "type": "function",
      "payable": true
    }
  ],
  "bytecode": "0x6080604052600260015534801561001557600080fd5b5073e01569b111125127d57cbe782da08844c6456b496000806101000a81548173ffffffffffffffffffffffffffffffffffffffff021916908373ffffffffffffffffffffffffffffffffffffffff16021790555061097f806100796000396000f3fe6080604052600436106100345760003560e01c806343046844146100395780638da5cb5b14610055578063a001ecdd14610080575b600080fd5b610053600480360381019061004e91906104c9565b6100ab565b005b34801561006157600080fd5b5061006a6103f6565b60405161007791906105eb565b60405180910390f35b34801561008c57600080fd5b5061009561041a565b6040516100a29190610646565b60405180910390f35b60008160ff1614806100c0575060018160ff16145b806100ce575060028160ff16145b61010d576040517f08c379a000000000000000000000000000000000000000000000000000000000815260040161010490610626565b60405180910390fd5b60003411610150576040517f08c379a000000000000000000000000000000000000000000000000000000000815260040161014790610606565b60405180910390fd5b600060646001543461016291906106f5565b61016c91906106c4565b90506000813461017c919061074f565b905060008054906101000a900473ffffffffffffffffffffffffffffffffffffffff1673ffffffffffffffffffffffffffffffffffffffff166108fc839081150290604051600060405180830381858888f193505050501580156101e4573d6000803e3d6000fd5b5060008054906101000a900473ffffffffffffffffffffffffffffffffffffffff1673ffffffffffffffffffffffffffffffffffffffff167f34e8a84e537ed93d93ddf39a78816dcbc74df8397c635838b8cc973d4fa943f88360405161024b9190610646565b60405180910390a26000600f61025f610420565b610269919061083f565b905060006102768261046e565b905060008160ff168660ff16141561034e5760008660ff1614156102a857600e846102a191906106f5565b90506102b8565b6002846102b591906106f5565b90505b3373ffffffffffffffffffffffffffffffffffffffff166108fc829081150290604051600060405180830381858888f193505050501580156102fe573d6000803e3d6000fd5b503373ffffffffffffffffffffffffffffffffffffffff167fa07504ca2ddf7919939a550c942dadfa6e7cb9abf8c05d99142202f7c60ba698826040516103459190610646565b60405180910390a25b3373ffffffffffffffffffffffffffffffffffffffff167f7df19a783369d9cefb06e18b396518f817b48766b74157758eda633a62f58fa73488604051610396929190610661565b60405180910390a23373ffffffffffffffffffffffffffffffffffffffff167f2fb60ff829e22a6cb7f0627bfd699c299b6ae6be6f22111859c8d14b1c36d72183836040516103e692919061068a565b60405180910390a2505050505050565b60008054906101000a900473ffffffffffffffffffffffffffffffffffffffff1681565b60015481565b6000600f42600143610432919061074f565b4033604051602001610446939291906105ae565b6040516020818303038152906040528051906020012060001c610469919061080e565b905090565b6000808260ff16141561048457600090506104af565b60018260ff161015801561049c575060078260ff1611155b156104aa57600190506104af565b600290505b919050565b6000813590506104c381610932565b92915050565b6000602082840312156104df576104de6108ce565b5b60006104ed848285016104b4565b91505092915050565b6104ff81610783565b82525050565b61051661051182610783565b6107d6565b82525050565b61052d61052882610795565b6107e8565b82525050565b60006105406019836106b3565b915061054b826108e0565b602082019050919050565b6000610563600e836106b3565b915061056e82610909565b602082019050919050565b610582816107bf565b82525050565b610599610594826107bf565b610804565b82525050565b6105a8816107c9565b82525050565b60006105ba8286610588565b6020820191506105ca828561051c565b6020820191506105da8284610505565b601482019150819050949350505050565b600060208201905061060060008301846104f6565b92915050565b6000602082019050818103600083015261061f81610533565b9050919050565b6000602082019050818103600083015261063f81610556565b9050919050565b600060208201905061065b6000830184610579565b92915050565b60006040820190506106766000830185610579565b610683602083018461059f565b9392505050565b600060408201905061069f600083018561059f565b6106ac6020830184610579565b9392505050565b600082825260208201905092915050565b60006106cf826107bf565b91506106da836107bf565b9250826106ea576106e961089f565b5b828204905092915050565b6000610700826107bf565b915061070b836107bf565b9250817fffffffffffffffffffffffffffffffffffffffffffffffffffffffffffffffff048311821515161561074457610743610870565b5b828202905092915050565b600061075a826107bf565b9150610765836107bf565b92508282101561077857610777610870565b5b828203905092915050565b600061078e8261079f565b9050919050565b6000819050919050565b600073ffffffffffffffffffffffffffffffffffffffff82169050919050565b6000819050919050565b600060ff82169050919050565b60006107e1826107f2565b9050919050565b6000819050919050565b60006107fd826108d3565b9050919050565b6000819050919050565b6000610819826107bf565b9150610824836107bf565b9250826108345761083361089f565b5b828206905092915050565b600061084a826107c9565b9150610855836107c9565b9250826108655761086461089f565b5b828206905092915050565b7f4e487b7100000000000000000000000000000000000000000000000000000000600052601160045260246000fd5b7f4e487b7100000000000000000000000000000000000000000000000000000000600052601260045260246000fd5b600080fd5b60008160601b9050919050565b7f596f75206e65656420746f2062657420736f6d65204554482100000000000000600082015250565b7f496e76616c696420636f6c6f7221000000000000000000000000000000000000600082015250565b61093b816107c9565b811461094657600080fd5b5056fea26469706673582212200a929cee4755d16fca3385781efdb83f88e0cee7ecdd773c4ad81875ef52575164736f6c63430008070033",
  "immutableReferences": {},
  "source": "// SPDX-License-Identifier: MIT\r\npragma solidity ^0.8.0;\r\n\r\ncontract Roulette {\r\n    address public owner;\r\n    uint256 public feePercentage = 2; // Fee percentage taken from each bet\r\n\r\n    // Events\r\n    event BetPlaced(address indexed player, uint256 amount, uint8 betColor);\r\n    event BetResult(address indexed player, uint8 winningColor, uint256 prize);\r\n    event FeeTransferred(address indexed to, uint256 amount);\r\n    event PrizeTransferred(address indexed to, uint256 amount);\r\n\r\n    // Constructor\r\n    constructor() {\r\n        owner = 0xe01569b111125127d57cbE782da08844C6456B49; // Set casino account as owner\r\n    }\r\n\r\n    // Modifier to restrict access to the owner\r\n    modifier onlyOwner() {\r\n        require(msg.sender == owner, \"You are not the owner!\");\r\n        _;\r\n    }\r\n\r\n    // Place a bet on Green (0), Red (1), or Black (2)\r\n    function placeBet(uint8 betColor) public payable {\r\n        require(betColor == 0 || betColor == 1 || betColor == 2, \"Invalid color!\");\r\n        require(msg.value > 0, \"You need to bet some ETH!\");\r\n\r\n        // Calculate the fee\r\n        uint256 fee = (msg.value * feePercentage) / 100;\r\n        uint256 netBetAmount = msg.value - fee;\r\n\r\n        // Transfer fee directly to the casino owner\r\n        payable(owner).transfer(fee);\r\n        emit FeeTransferred(owner, fee);\r\n\r\n        // Determine winning number and color\r\n        uint8 winningNumber = random() % 15;\r\n        uint8 winningColor = calculateColor(winningNumber);\r\n\r\n        uint256 prize = 0;\r\n\r\n        // Determine prize amount\r\n        if (betColor == winningColor) {\r\n            if (betColor == 0) {\r\n                prize = netBetAmount * 14; // Green payout: 14x\r\n            } else {\r\n                prize = netBetAmount * 2; // Red/Black payout: 2x\r\n            }\r\n\r\n            // Send prize directly to the player\r\n            payable(msg.sender).transfer(prize);\r\n            emit PrizeTransferred(msg.sender, prize);\r\n        }\r\n\r\n        emit BetPlaced(msg.sender, msg.value, betColor);\r\n        emit BetResult(msg.sender, winningColor, prize);\r\n    }\r\n\r\n    // Generate a pseudo-random number\r\n    function random() private view returns (uint8) {\r\n        return uint8(uint256(keccak256(abi.encodePacked(block.timestamp, blockhash(block.number - 1), msg.sender))) % 15);\r\n    }\r\n\r\n    // Determine color based on number\r\n    function calculateColor(uint8 number) private pure returns (uint8) {\r\n        if (number == 0) return 0; // Green\r\n        if (number >= 1 && number <= 7) return 1; // Red\r\n        return 2; // Black\r\n    }\r\n}\r\n",
  "sourcePath": "C:\\Users\\kaspa\\Desktop\\My small projects\\SmartContracts\\contracts\\Roulette.sol",
  "compiler": {
    "name": "solc",
    "version": "0.8.7+commit.e28d00a7.Emscripten.clang"
  },
  "schemaVersion": "3.4.16",
  "updatedAt": "2024-12-11T11:42:19.602Z",
  "networkType": "ethereum",
  "devdoc": {
    "kind": "dev",
    "methods": {},
    "version": 1
  },
  "userdoc": {
    "kind": "user",
    "methods": {},
    "version": 1
  }
}